:020000040800F2
:1000000000500020350B0008590A00085F0A00085C
:10001000650A00086B0A0008710A00080000000069
:10002000000000000000000000000000770A000847
:10003000830A0008000000008F0A00089B0A0008DD
:100040007D0B00087D0B00087D0B00087D0B000870
:100050007D0B00087D0B00087D0B00087D0B000860
:100060007D0B00087D0B00087D0B00087D0B000850
:100070007D0B00087D0B00087D0B00087D0B000840
:100080007D0B00087D0B00087D0B00087D0B000830
:100090007D0B00087D0B00087D0B00087D0B000820
:1000A0007D0B00087D0B00087D0B00087D0B000810
:1000B0007D0B00087D0B00087D0B00087D0B000800
:1000C0007D0B00087D0B00087D0B0008A90A0008C5
:1000D0007D0B00087D0B00087D0B00087D0B0008E0
:1000E0007D0B00087D0B00087D0B00080000000060
:1000F0000000000000000000000000000000000000
:0C01000000000000000000005FF808F1A3
:10010C0010B5054C237833B9044B13B10448AFF345
:10011C0000800123237010BD70000020000000003F
:10012C00A023000808B5034B1BB103490348AFF3E8
:10013C00008008BD0000000074000020A02300080F
:10014C0080B582B000AF00F015FD00F02FF800F084
:10015C009FF800F067F8102002F094F803467B60DB
:10016C0010230E4A0E49786800F0D8F90D497868CA
:10017C0000F011FA0346002BF8D100224FF4005185
:10018C00094801F085F84FF47A7000F055FD012212
:10019C004FF40051044801F07BF8E7E700080140F8
:1001AC0098000020F00000200010014080B590B0B5
:1001BC0000AF07F1180328220021184602F06AF854
:1001CC003B1D00221A605A609A60DA601A610223A1
:1001DC00BB610123BB621023FB6200237B6307F12D
:1001EC001803184601F06CF80346002B01D000F000
:1001FC00A3F80F237B600023BB600023FB6000236C
:10020C003B6100237B613B1D0021184601F0D8FAAD
:10021C000346002B01D000F08FF800BF4037BD46DD
:10022C0080BD000080B500AF174B184A1A60164B02
:10023C004FF482725A60144B00229A60124B0022C7
:10024C00DA60114B00221A610F4B00225A610E4BDF
:10025C004FF400729A610C4B1022DA610A4B0022A7
:10026C001A62094B00225A62074B00229A62064B13
:10027C000A22DA62044801F00BFC0346002B01D081
:10028C0000F05AF800BF80BD9800002000300140FB
:10029C0080B586B000AF07F1080300221A605A60DF
:1002AC009A60DA60214B9B69204A43F010039361FA
:1002BC001E4B9B6903F010037B607B681B4B9B6997
:1002CC001A4A43F004039361184B9B6903F004032F
:1002DC003B603B6800224FF40051154800F0D8FFFA
:1002EC0000221021134800F0D3FF4FF40053BB60E1
:1002FC000123FB6002233B6102237B6107F10803AE
:10030C0019460B4800F040FE1023BB600123FB6034
:10031C0000233B6102237B6107F108031946054862
:10032C0000F032FE00BF1837BD4680BD0010024001
:10033C00001001400008014080B400AF72B600BF4D
:10034C00FEE780B582B000AF78600B46FB707B682F
:10035C0058687B681B89FA78194600F099FF00BF32
:10036C000837BD4680BD80B586B002AF78600B46BD
:10037C00FB70FB783B7300BF7B681B681B689B683A
:10038C0003F00203022BF7D17B68186807F108020F
:10039C0007F10C010A230093012301F0FDFB00BFC0
:1003AC007B681B681B689B6803F08003802BF7D06D
:1003BC003B7A18461037BD4680BD80B584B000AF7F
:1003CC0078600B46FB701346BB70FB785B00DBB2AE
:1003DC0003F07E03FB7300217868FFF7B2FFFB7B11
:1003EC0019467868FFF7BFFF012000F025FCBB78A9
:1003FC0019467868FFF7B7FF012000F01DFC0121BA
:10040C007868FFF79EFF00BF1037BD4680BD80B5F2
:10041C0084B000AF78600B46FB70FB785B005BB27E
:10042C0003F07E035BB263F07F035BB2FB730021CE
:10043C007868FFF786FFFB7B19467868FFF793FF18
:10044C0000217868FFF78FFF0346BB7301217868A2
:10045C00FFF777FFBB7B18461037BD4680BD80B5D4
:10046C0082B000AF78600B46FB701346BB70FB7814
:10047C0019467868FFF7CBFF03461A46BB7813433F
:10048C00DAB2FB7819467868FFF797FF00BF083798
:10049C00BD4680BD80B582B000AF78600B46FB7066
:1004AC001346BB70FB7819467868FFF7B0FF03461C
:1004BC005AB297F90230DB435BB213405BB2DAB24B
:1004CC00FB7819467868FFF778FF00BF0837BD4600
:1004DC0080BD80B584B000AF786014217868FFF7D8
:1004EC0096FF0346FB73FB7B03F00303002B04D145
:1004FC00032214217868FFF7B2FF00BF1037BD4606
:10050C0080BD80B582B000AF78600F220121786881
:10051C00FFF753FF00BF0837BD4680BD80B584B0E0
:10052C0000AFF860B9607A607B80FB68BA681A60CB
:10053C00FB687A685A60FB687A881A81F868FFF75A
:10054C00E0FF8D222A21F868FFF737FF3E222B218E
:10055C00F868FFF732FF1E222D21F868FFF72DFFF8
:10056C0000222C21F868FFF728FF70222621F8685A
:10057C00FFF723FF40221521F868FFF71EFF3D22ED
:10058C001121F868FFF719FFF868FFF7A2FF00BF09
:10059C001037BD4680BD80B584B000AF786039603F
:1005AC003A682621786800F013F80346FB73FB7B4E
:1005BC00002B05D13968786800F010F90346FB73FD
:1005CC00786800F09DF9FB7B18461037BD4680BD5E
:1005DC0080B588B002AFF8600B467A60FB720722D8
:1005EC000D21F868FFF7E9FE7B68FA7A1A7007F1BB
:1005FC00140301937B68009301237A680C21F8683B
:10060C0000F00FF80346FB75FB7D002B02D1BB8A73
:10061C00102B01D00223FB75FB7D18461837BD4605
:10062C0080BD90B587B000AFF8607A601A460B4673
:10063C00FB721346BB720223FB750023BB750023B0
:10064C007B75FB7A0C2B06D00E2B09D11223BB75B4
:10065C0010237B7505E07723BB7530237B7500E099
:10066C0000BFBB7D63F07F03DBB21A460221F86842
:10067C00FFF7A3FE80220421F868FFF70BFF80220E
:10068C000A21F868FFF7EBFE00220121F868FFF75A
:10069C0094FE00237B820BE07B8A7A6813441B78E0
:1006AC001A460921F868FFF788FE7B8A01337B82A2
:1006BC00BB7A9BB27A8A9A42EED3FB7A1A46012114
:1006CC00F868FFF77AFEFB7A0C2B04D180220D21FF
:1006DC00F868FFF7C4FE4FF4FA637B820421F868D4
:1006EC00FFF795FE03463B757B8A013B7B827B8A39
:1006FC00002B0AD03B7D03F00103002B05D13A7D82
:10070C007B7D1340DBB2002BE8D080220D21F868F2
:10071C00FFF7C0FE7B8A002B5BD00621F868FFF741
:10072C0076FE034603F01B03002B50D10023FB7510
:10073C003A7DBB7D1340DBB203F00103002B01D0EB
:10074C000123FB75FB7A0C2B43D10A21F868FFF7C8
:10075C005EFE03463B750C21F868FFF758FE034616
:10076C0003F007037B747B7C002B0BD03B7D013BA0
:10077C009BB2DB009AB27B7C9BB213449AB2FB6AAD
:10078C001A8005E03B7D9BB2DB009AB2FB6A1A80B3
:10079C003B7D002B01D101233B753B7D102B01D9F7
:1007AC0010233B7500237B820BE07B8ABA6AD4183A
:1007BC000921F868FFF72BFE034623707B8A01336F
:1007CC007B823B7D9BB27A8A9A42EED301E0022374
:1007DC00FB75FB7D18461C37BD4690BD80B586B0B9
:1007EC0002AF7860396000237B7300220D2178689A
:1007FC00FFF7E3FD3B6893221A703B68013320221C
:10080C001A7007F10A0301933B68009302233A68BC
:10081C000C217868FFF705FF0346FB73FB7B002B6D
:10082C0018D10023BB7309E0BB7B3A6813441A78D8
:10083C007B7B53407B73BB7B0133BB73BB7B032B39
:10084C00F2D9BB7B3A6813441B787A7B9A4201D06D
:10085C000223FB73FB7B18461037BD4680BD90B559
:10086C0087B000AFF860B9603B601346FB7104229F
:10087C000521F868FFF70EFE80220A21F868FFF7C1
:10088C00EEFD0023FB750BE0FB7DBA6813441B786F
:10089C001A460921F868FFF790FDFB7D0133FB75C3
:1008AC00FA7DFB799A42EFD303220121F868FFF716
:1008BC0084FDFF23FB750521F868FFF7A8FD0346AF
:1008CC00BB75FB7D013BFB75FB7D002B04D0BB7D19
:1008DC0003F00403002BEED02221F868FFF797FDFC
:1008EC0003461A463B681A703B685C1C2121F86869
:1008FC00FFF78DFD0346237000BF1C37BD4690BD2E
:10090C0080B586B002AF786050233B7200237B72B7
:10091C0007F10803023307F1080102227868FFF798
:10092C009EFF07F1080207F10E03019307F108037C
:10093C00009304230C217868FFF773FE00BF103777
:10094C00BD4680BD80B485B000AF154B9B69144A81
:10095C0043F001039361124B9B6903F00103BB60ED
:10096C00BB680F4BDB690E4A43F08053D3610C4BD1
:10097C00DB6903F080537B607B680A4B5B68FB6030
:10098C00FB6823F0E063FB60FB6843F08063FB6073
:10099C00044AFB68536000BF1437BD4680BC7047E7
:1009AC00001002400000014080B588B000AF7860B4
:1009BC0007F1100300221A605A609A60DA607B68B3
:1009CC001B681F4A934237D11E4B9B691D4A43F447
:1009DC00805393611B4B9B6903F48053FB60FB6852
:1009EC00184B9B69174A43F004039361154B9B69A1
:1009FC0003F00403BB60BB68A0233B6102237B6153
:100A0C000323FB6107F1100319460F4800F0BCFAF1
:100A1C0040233B6100237B610023BB6107F1100382
:100A2C001946094800F0B0FA00220021232000F0FA
:100A3C00FEF9232000F017FA00BF2037BD4680BD19
:100A4C0000300140001002400008014080B400AFAB
:100A5C00FEE780B400AFFEE780B400AFFEE780B4E1
:100A6C0000AFFEE780B400AFFEE780B400AF00BF7C
:100A7C00BD4680BC704780B400AF00BFBD4680BC93
:100A8C00704780B400AF00BFBD4680BC704780B5D6
:100A9C0000AF00F0B5F800BF80BD000080B500AF1E
:100AAC00024801F01BFA00BF80BD00BF9800002077
:100ABC0080B586B000AF7860144A154BD31A7B61B1
:100ACC007B693B61134B1B68002B02D1114B124A03
:100ADC001A60104B1A687B6813443A699A4207D221
:100AEC0001F0A6FB03460C221A604FF0FF3309E01D
:100AFC00084B1B68FB60074B1A687B681344054A5C
:100B0C001360FB6818461837BD4680BD00500020A6
:100B1C00000400008C0000201001002080B400AF05
:100B2C0000BFBD4680BC70470C480D490D4A0023E0
:100B3C0002E0D458C4500433C4188C42F9D30A4A86
:100B4C000A4C002301E013600432A242FBD3FFF7EE
:100B5C00E5FF01F073FBFFF7F3FA7047000000208C
:100B6C0070000020E0230008700000200C01002021
:100B7C00FEE7000080B500AF084B1B68074A43F046
:100B8C0010031360032000F047F90F2000F008F861
:100B9C00FFF7D8FE0023184680BD00BF002002409E
:100BAC0080B582B000AF7860124B1A68124B1B787C
:100BBC0019464FF47A73B3FBF1F3B2FBF3F3184617
:100BCC0000F05FF90346002B01D001230EE07B6897
:100BDC000F2B0AD8002279684FF0FF3000F027F96C
:100BEC00064A7B681360002300E00123184608378F
:100BFC00BD4680BD0000002008000020040000203D
:100C0C0080B400AF054B1B781A46054B1B68134488
:100C1C00034A136000BFBD4680BC7047080000202B
:100C2C00F800002080B400AF024B1B681846BD468C
:100C3C0080BC7047F800002080B584B000AF7860AD
:100C4C00FFF7F0FFB8607B68FB60FB68B3F1FF3F18
:100C5C0005D00A4B1B781A46FB681344FB6000BF97
:100C6C00FFF7E0FF0246BB68D31AFA689A42F7D83E
:100C7C0000BF00BF1037BD4680BD00BF080000207C
:100C8C0080B485B000AF78607B6803F00703FB602D
:100C9C000C4BDB68BB60BA684FF6FF031340BB60BC
:100CAC00FB681A02BB68134343F0BF6343F4003381
:100CBC00BB60044ABB68D36000BF1437BD4680BC20
:100CCC00704700BF00ED00E080B400AF044BDB6860
:100CDC001B0A03F007031846BD4680BC704700BFD3
:100CEC0000ED00E080B483B000AF0346FB7197F9D0
:100CFC000730002B0BDBFB7903F01F02064997F939
:100D0C0007305B09012000FA02F241F8232000BFF2
:100D1C000C37BD4680BC704700E100E080B483B066
:100D2C0000AF03463960FB7197F90730002B0ADBE3
:100D3C003B68DAB20C4997F907301201D2B20B4476
:100D4C0083F800230AE03B68DAB20849FB7903F028
:100D5C000F03043B1201D2B20B441A7600BF0C37BE
:100D6C00BD4680BC704700BF00E100E000ED00E034
:100D7C0080B489B000AFF860B9607A60FB6803F0AA
:100D8C000703FB61FB69C3F10703042B28BF042392
:100D9C00BB61FB690433062B02D9FB69033B00E002
:100DAC0000237B614FF0FF32BB6902FA03F3DA4395
:100DBC00BB681A407B699A404FF0FF317B6901FA9E
:100DCC0003F3D9437B680B40134318462437BD46C5
:100DDC0080BC704780B582B000AF78607B68013B07
:100DEC00B3F1807F01D301230FE00A4A7B68013BFA
:100DFC0053600F214FF0FF30FFF790FF054B00229F
:100E0C009A60044B07221A60002318460837BD4627
:100E1C0080BD00BF10E000E080B582B000AF78600C
:100E2C007868FFF72DFF00BF0837BD4680BD80B541
:100E3C0086B000AF0346B9607A60FB7300237B6118
:100E4C00FFF742FF78617A68B9687869FFF790FF1D
:100E5C00024697F90F3011461846FFF75FFF00BFA7
:100E6C001837BD4680BD80B582B000AF0346FB711C
:100E7C0097F907301846FFF735FF00BF0837BD4616
:100E8C0080BD80B582B000AF78607868FFF7A2FFB4
:100E9C00034618460837BD4680BD000080B584B0B7
:100EAC0000AF78600023FB737B6893F82130022B32
:100EBC0005D07B6804229A630123FB7351E07B68A5
:100ECC001B681A687B681B6822F00E021A607B682C
:100EDC001B681A687B681B6822F001021A607B6829
:100EEC001B68224A934229D07B681B68204A934294
:100EFC0022D07B681B681F4A93421AD07B681B6800
:100F0C001D4A934212D07B681B681C4A93420AD03C
:100F1C007B681B681A4A934202D14FF480130EE08F
:100F2C004FF080730BE04FF4803308E04FF48053A4
:100F3C0005E04FF4807302E0102300E00123114A16
:100F4C0053607B68012283F821207B68002283F8A0
:100F5C0020207B685B6B002B03D07B685B6B786815
:100F6C009847FB7B18461037BD4680BD08000240F1
:100F7C001C00024030000240440002405800024075
:100F8C006C0002400000024080B48BB000AF78606F
:100F9C00396000237B6200233B6269E101227B6A9A
:100FAC0002FA03F3FB613B681B68FA691340BB61EF
:100FBC00BA69FB699A4240F058813B685B689A4A6F
:100FCC0093425ED0984A934275D8984A934258D02F
:100FDC00964A93426FD8964A934252D0944A93427F
:100FEC0069D8944A93424CD0924A934263D8924A1D
:100FFC00934246D0904A93425DD8122B2AD8122B9A
:10100C0059D801A252F823F08F100008691000087B
:10101C007B100008BD100008C3100008C3100008A6
:10102C00C3100008C3100008C3100008C310000848
:10103C00C3100008C3100008C3100008C310000838
:10104C00C3100008C3100008C3100008711000087A
:10105C0085100008794A934213D02CE03B68DB687A
:10106C003B6229E03B68DB6804333B6224E03B686D
:10107C00DB6808333B621FE03B68DB680C333B6288
:10108C001AE03B689B68002B02D104233B6213E0FF
:10109C003B689B68012B05D108233B627B68FA698E
:1010AC001A6109E008233B627B68FA695A6103E024
:1010BC0000233B6200E000BFBB69FF2B01D87B68BB
:1010CC0001E07B6804337B61BB69FF2B02D87B6A30
:1010DC009B0002E07B6A083B9B003B617B691A68C2
:1010EC000F213B6901FA03F3DB431A40396A3B6970
:1010FC0001FA03F31A437B691A603B685B6803F0DF
:10110C008053002B00F0B1804D4B9B694C4A43F04F
:10111C00010393614A4B9B6903F00103BB60BB68FD
:10112C00484A7B6A9B08023352F82330FB607B6A87
:10113C0003F003039B000F2202FA03F3DB43FA686C
:10114C001340FB607B68404A934213D07B683F4A54
:10115C0093420DD07B683E4A934207D07B683D4A50
:10116C00934201D1032306E0042304E0022302E0AE
:10117C00012300E000237A6A02F0030292009340FC
:10118C00FA681343FB602F497B6A9B080233FA68A9
:10119C0041F823203B685B6803F48033002B06D0B6
:1011AC002D4B1A682C49BB6913430B6006E02A4B84
:1011BC001A68BB69DB43284913400B603B685B68CA
:1011CC0003F40033002B06D0234B5A682249BB6929
:1011DC0013434B6006E0204B5A68BB69DB431E4946
:1011EC0013404B603B685B6803F48013002B06D004
:1011FC00194B9A681849BB6913438B6006E0164B70
:10120C009A68BB69DB43144913408B603B685B688D
:10121C0003F40013002B21D00F4BDA680E49BB6985
:10122C001343CB6021E000BF0000321000003110EE
:10123C0000002210000021100000121000001110FC
:10124C00001002400000014000080140000C014069
:10125C000010014000140140000401400B4BDA68FF
:10126C00BB69DB4309491340CB607B6A01337B626A
:10127C003B681A687B6A22FA03F3002B7FF48EAE6C
:10128C0000BF00BF2C37BD4680BC70470004014036
:10129C0080B483B000AF78600B467B8013467B70C4
:1012AC007B78002B03D07A887B681A6103E07B88FB
:1012BC001A047B681A6100BF0C37BD4680BC7047AE
:1012CC0080B586B000AF78607B68002B01D101231C
:1012DC006CE27B681B6803F00103002B00F0878035
:1012EC00924B5B6803F00C03042B0CD08F4B5B68A8
:1012FC0003F00C03082B12D18C4B5B6803F4803386
:10130C00B3F5803F0BD1894B1B6803F40033002BE2
:10131C006CD07B685B68002B68D1012346E27B684C
:10132C005B68B3F5803F06D1804B1B687F4A43F462
:10133C00803313602EE07B685B68002B0CD17B4BF9
:10134C001B687A4A23F480331360784B1B68774A06
:10135C0023F4802313601DE07B685B68B3F5A02F3A
:10136C000CD1724B1B68714A43F4802313606F4B92
:10137C001B686E4A43F4803313600BE06B4B1B68A5
:10138C006A4A23F480331360684B1B68674A23F462
:10139C00802313607B685B68002B13D0FFF742FC43
:1013AC00386108E0FFF73EFC02463B69D31A642B18
:1013BC0001D90323FAE15D4B1B6803F40033002BC6
:1013CC00F0D014E0FFF72EFC386108E0FFF72AFCA0
:1013DC0002463B69D31A642B01D90323E6E1534B34
:1013EC001B6803F40033002BF0D100E000BF7B68D6
:1013FC001B6803F00203002B63D04C4B5B6803F0BB
:10140C000C03002B0BD0494B5B6803F00C03082B2F
:10141C001CD1464B5B6803F48033002B16D1434B35
:10142C001B6803F00203002B05D07B681B69012BA2
:10143C0001D00123BAE13D4B1B6823F0F8027B6815
:10144C005B69DB00394913430B603AE07B681B692D
:10145C00002B20D0364B01221A60FFF7E3FB3861DA
:10146C0008E0FFF7DFFB02463B69D31A022B01D9D8
:10147C0003239BE12D4B1B6803F00203002BF0D0E0
:10148C002A4B1B6823F0F8027B685B69DB00274959
:10149C0013430B6015E0264B00221A60FFF7C2FBCA
:1014AC00386108E0FFF7BEFB02463B69D31A022BFA
:1014BC0001D903237AE11D4B1B6803F00203002BB7
:1014CC00F0D17B681B6803F00803002B3AD07B68D3
:1014DC009B69002B19D0174B01221A60FFF7A2FB56
:1014EC00386108E0FFF79EFB02463B69D31A022BDA
:1014FC0001D903235AE10D4B5B6A03F00203002B65
:10150C00F0D0012000F0A6FA1CE00A4B00221A6071
:10151C00FFF788FB38610FE0FFF784FB02463B695D
:10152C00D31A022B08D9032340E100BF001002405C
:10153C0000004242800442429E4B5B6A03F002036D
:10154C00002BE9D17B681B6803F00403002B00F02F
:10155C00A6800023FB75974BDB6903F08053002BAF
:10156C000DD1944BDB69934A43F08053D361914B7B
:10157C00DB6903F08053BB60BB680123FB758E4BAA
:10158C001B6803F48073002B18D18B4B1B688A4AA1
:10159C0043F480731360FFF745FB386108E0FFF7F5
:1015AC0041FB02463B69D31A642B01D90323FDE0AE
:1015BC00814B1B6803F48073002BF0D07B68DB68D5
:1015CC00012B06D17B4B1B6A7A4A43F00103136251
:1015DC002DE07B68DB68002B0CD1764B1B6A754ABF
:1015EC0023F001031362734B1B6A724A23F004034A
:1015FC0013621CE07B68DB68052B0CD16D4B1B6AFE
:10160C006C4A43F0040313626A4B1B6A694A43F049
:10161C00010313620BE0674B1B6A664A23F001035C
:10162C001362644B1B6A634A23F0040313627B68E6
:10163C00DB68002B15D0FFF7F5FA38610AE0FFF7ED
:10164C00F1FA02463B69D31A41F28832934201D92E
:10165C000323ABE0574B1B6A03F00203002BEED0C5
:10166C0014E0FFF7DFFA38610AE0FFF7DBFA024615
:10167C003B69D31A41F28832934201D9032395E096
:10168C004C4B1B6A03F00203002BEED1FB7D012BAC
:10169C0005D1484BDB69474A23F08053D3617B6803
:1016AC00DB69002B00F08180424B5B6803F00C037C
:1016BC00082B61D07B68DB69022B46D13F4B0022A3
:1016CC001A60FFF7AFFA386108E0FFF7ABFA024691
:1016DC003B69D31A022B01D9032367E0354B1B68F6
:1016EC0003F00073002BF0D17B681B6AB3F5803FCD
:1016FC0008D1304B5B6823F400327B689B682D4922
:10170C0013434B602B4B5B6823F474127B68196A90
:10171C007B685B6A0B43274913434B60274B0122C1
:10172C001A60FFF77FFA386108E0FFF77BFA024690
:10173C003B69D31A022B01D9032337E01D4B1B68DD
:10174C0003F00073002BF0D02FE01C4B00221A602A
:10175C00FFF768FA386108E0FFF764FA02463B6964
:10176C00D31A022B01D9032320E0124B1B6803F080
:10177C000073002BF0D118E07B68DB69012B01D1E1
:10178C00012313E00B4B5B68FB60FB6803F48032B6
:10179C007B681B6A9A4206D1FB6803F470127B6863
:1017AC005B6A9A4201D0012300E0002318461837E7
:1017BC00BD4680BD001002400070004060004242F7
:1017CC0080B584B000AF786039607B68002B01D1A4
:1017DC000123D0E06A4B1B6803F007033A689A4276
:1017EC0010D9674B1B6823F0070265493B6813430C
:1017FC000B60634B1B6803F007033A689A4201D0F5
:10180C000123B8E07B681B6803F00203002B20D097
:10181C007B681B6803F00403002B05D0594B5B68F5
:10182C00584A43F4E06353607B681B6803F0080379
:10183C00002B05D0534B5B68524A43F46053536002
:10184C00504B5B6823F0F0027B689B684D49134357
:10185C004B607B681B6803F00103002B40D07B6856
:10186C005B68012B07D1474B1B6803F40033002B3B
:10187C0015D101237FE07B685B68022B07D1414BBC
:10188C001B6803F00073002B09D1012373E03D4B5F
:10189C001B6803F00203002B01D101236BE0394BD1
:1018AC005B6823F003027B685B68364913434B602B
:1018BC00FFF7B8F9F8600AE0FFF7B4F90246FB68E5
:1018CC00D31A41F28832934201D9032353E02D4BB2
:1018DC005B6803F00C027B685B689B009A42EBD15F
:1018EC00274B1B6803F007033A689A4210D2244B2B
:1018FC001B6823F0070222493B6813430B60204B03
:10190C001B6803F007033A689A4201D0012332E0C6
:10191C007B681B6803F00403002B08D0194B5B6831
:10192C0023F4E0627B68DB68164913434B607B68E9
:10193C001B6803F00803002B09D0124B5B6823F4DF
:10194C0060527B681B69DB000E4913434B6000F04F
:10195C0021F802460B4B5B681B0903F00F030A4985
:10196C00CB5C22FA03F3094A1360094B1B68184637
:10197C00FFF716F9002318461037BD4680BD00BF8F
:10198C000020024000100240C82300080000002084
:10199C000400002090B48AB000AF2A4B3C1D0FCB42
:1019AC0084E80F0040F201233B800023FB610023FD
:1019BC00BB6100237B6200237B6100233B62224BD3
:1019CC005B68FB61FB6903F00C03042B02D0082B52
:1019DC0003D02DE01D4B3B622DE0FB699B0C03F00B
:1019EC000F0307F12802134413F8243C7B61FB69B5
:1019FC0003F48033002B13D0134B5B685B0C03F0A8
:101A0C00010307F12802134413F8283CBB617B69DE
:101A1C000E4A02FB03F2BB69B2FBF3F37B6204E0F8
:101A2C007B690B4A02FB03F37B627B6A3B6202E03D
:101A3C00064B3B6200BF3B6A18462837BD4690BC3C
:101A4C00704700BFB82300080010024000127A0053
:101A5C0000093D0080B485B000AF78600A4B1B686C
:101A6C000A4AA2FB03235B0A7A6802FB03F3FB60BE
:101A7C0000BFFB685A1EFA60002BF9D100BF00BFF3
:101A8C001437BD4680BC704700000020D34D621057
:101A9C0080B582B000AF78607B68002B01D1012348
:101AAC0076E07B685B6A002B08D17B685B68B3F5DA
:101ABC00827F09D07B680022DA6105E07B68002216
:101ACC001A617B6800225A617B6800229A627B68EB
:101ADC0093F85130DBB2002B06D17B68002283F8DF
:101AEC0050207868FEF760FF7B68022283F8512053
:101AFC007B681B681A687B681B6822F040021A60BE
:101B0C007B685B6803F482727B689B6803F4044314
:101B1C001A437B68DB6803F400631A437B681B6918
:101B2C0003F002031A437B685B6903F001031A4359
:101B3C007B689B6903F400731A437B68DB6903F0D1
:101B4C0038031A437B681B6A03F0800342EA0301E3
:101B5C007B689B6A03F400527B681B680A431A601B
:101B6C007B689B691A0C7B681B6802F004025A6044
:101B7C007B681B68DA697B681B6822F40062DA6197
:101B8C007B6800225A657B68012283F85120002370
:101B9C0018460837BD4680BD80B58CB000AFF860E4
:101BAC00B9607A607B800123FB62002387F82B30BD
:101BBC00FB6893F85030012B01D102238AE1FB68BA
:101BCC00012283F85020FFF72DF87862FB6893F818
:101BDC00513087F82330FB685B68FB617B887B8323
:101BEC0097F82330012B0FD0FB69B3F5827F07D117
:101BFC00FB689B68002B03D197F82330042B03D090
:101C0C00022387F82B305BE1BB68002B05D07B6887
:101C1C00002B02D07B88002B03D1012387F82B30BB
:101C2C004EE1FB6893F85130DBB2042B03D0FB6818
:101C3C00052283F85120FB6800225A65FB687A68FC
:101C4C009A63FB687A88DA87FB687A889A87FB68DC
:101C5C00BA681A63FB687A88DA86FB687A889A868F
:101C6C00FB6800221A64FB6800225A64FB681B683C
:101C7C001B6803F04003402B07D0FB681B681A68F5
:101C8C00FB681B6842F040021A60FB68DB68B3F526
:101C9C00006F78D1FB685B68002B02D07B8B012B2B
:101CAC0066D1FB681B6B1A88FB681B68DA60FB68E3
:101CBC001B6B9A1CFB681A63FB68DB8E9BB2013BA7
:101CCC009AB2FB68DA8653E0FB681B689B6803F0EA
:101CDC000203022B1BD1FB68DB8E9BB2002B16D0B0
:101CEC00FB6A012B13D1FB681B6B1A88FB681B6802
:101CFC00DA60FB681B6B9A1CFB681A63FB68DB8E53
:101D0C009BB2013B9AB2FB68DA860023FB62FB684C
:101D1C001B689B6803F00103012B19D1FB68DB8F57
:101D2C009BB2002B14D0FB681B68DA68FB689B6BBA
:101D3C0092B21A80FB689B6B9A1CFB689A63FB68D7
:101D4C00DB8F9BB2013B9AB2FB68DA870123FB6203
:101D5C00FEF768FF02467B6AD31ABA6B9A4207D821
:101D6C00BB6BB3F1FF3F03D0032387F82B30A7E005
:101D7C00FB68DB8E9BB2002BA6D1FB68DB8F9BB282
:101D8C00002BA1D17CE0FB685B68002B02D07B8B25
:101D9C00012B6BD1FB681A6BFB681B680C33127838
:101DAC001A70FB681B6B5A1CFB681A63FB68DB8E92
:101DBC009BB2013B9AB2FB68DA8657E0FB681B6862
:101DCC009B6803F00203022B1CD1FB68DB8E9BB2D9
:101DDC00002B17D0FB6A012B14D1FB681A6BFB6824
:101DEC001B680C3312781A70FB681B6B5A1CFB684F
:101DFC001A63FB68DB8E9BB2013B9AB2FB68DA86F6
:101E0C000023FB62FB681B689B6803F00103012B3A
:101E1C0019D1FB68DB8F9BB2002B14D0FB681B68BD
:101E2C00DA68FB689B6BD2B21A70FB689B6B5A1C0E
:101E3C00FB689A63FB68DB8F9BB2013B9AB2FB6831
:101E4C00DA870123FB62FEF7EDFE02467B6AD31AAA
:101E5C00BA6B9A4203D8BB6BB3F1FF3F02D1BB6B99
:101E6C00002B03D1032387F82B3029E0FB68DB8E92
:101E7C009BB2002BA2D1FB68DB8F9BB2002B9DD1B8
:101E8C007A6AB96BF86800F0B5F90346002B06D0F6
:101E9C00012387F82B30FB6820225A6510E0FB6881
:101EAC009B68002B0BD100237B61FB681B68DB68F4
:101EBC007B61FB681B689B687B617B6900E000BFF2
:101ECC00FB68012283F85120FB68002283F8502024
:101EDC0097F82B3018463037BD4680BD80B588B09A
:101EEC0000AF78607B681B685B68FB617B681B6874
:101EFC009B68BB61BB699B0903F00103002B0FD1ED
:101F0C00BB6903F00103002B0AD0FB699B0903F0AA
:101F1C000103002B04D07B681B6C78689847BEE0EB
:101F2C00BB695B0803F00103002B0AD0FB69DB09DA
:101F3C0003F00103002B04D07B685B6C7868984736
:101F4C00ADE0BB695B0903F00103002B06D1BB6953
:101F5C009B0903F00103002B00F0A180FB695B09D6
:101F6C0003F00103002B00F09A80BB699B0903F07E
:101F7C000103002B23D07B6893F85130DBB2032B89
:101F8C0011D07B685B6D43F004027B685A650023BB
:101F9C007B617B681B68DB687B617B681B689B686B
:101FAC007B617B690BE000233B617B681B68DB6812
:101FBC003B617B681B689B683B613B696FE0BB695D
:101FCC005B0903F00103002B14D07B685B6D43F0BD
:101FDC0001027B685A650023FB607B681B689B6869
:101FEC00FB607B681B681A687B681B6822F04002E8
:101FFC001A60FB687B685B6D002B4FD07B681B689D
:10200C005A687B681B6822F0E0025A607B680122E8
:10201C0083F85120FB6903F00203002B04D1FB6908
:10202C0003F00103002B34D07B681B685A687B6873
:10203C001B6822F003025A607B68DB6C002B11D00A
:10204C007B68DB6C174A5A637B68DB6C1846FEF7BF
:10205C0025FF0346002B05D07B685B6D43F04002E7
:10206C007B685A657B689B6C002B16D07B689B6CDD
:10207C000C4A5A637B689B6C1846FEF70FFF0346AD
:10208C00002B0AD07B685B6D43F040027B685A657D
:10209C0003E0786800F008F800E000BF00BF2037CC
:1020AC00BD4680BDC720000880B483B000AF786007
:1020BC0000BF0C37BD4680BC704780B584B000AF04
:1020CC0078607B685B6AFB60FB680022DA87FB68E0
:1020DC000022DA86F868FFF7E7FF00BF1037BD462D
:1020EC0080BD000080B588B000AFF860B9603B607F
:1020FC001346FB71FEF796FD0246BB6A9B1A3A68C3
:10210C001344FB61FEF78EFDB861394B1B685B0114
:10211C001B0DFA6902FB03F37B6154E03B68B3F1DE
:10212C00FF3F50D0FEF77EFD0246BB69D31AFA6919
:10213C009A4202D9FB69002B3DD1FB681B685A6897
:10214C00FB681B6822F0E0025A60FB685B68B3F521
:10215C00827F11D1FB689B68B3F5004F04D0FB68FC
:10216C009B68B3F5806F07D1FB681B681A68FB6826
:10217C001B6822F040021A60FB689B6AB3F5005F93
:10218C000FD1FB681B681A68FB681B6822F40052AD
:10219C001A60FB681B681A68FB681B6842F40052E3
:1021AC001A60FB68012283F85120FB68002283F837
:1021BC005020032317E07B69002B01D10023FB6126
:1021CC007B69013B7B61FB681B689A68BB681340A9
:1021DC00BA689A420CBF01230023DBB21A46FB7982
:1021EC009A429BD1002318462037BD4680BD00BFC4
:1021FC000000002080B586B002AFF860B9607A604C
:10220C007B680093BB6800228021F868FFF76AFFA7
:10221C000346002B07D0FB685B6D43F02002FB6884
:10222C005A65032300E0002318461037BD4680BDD5
:10223C00014B1868704700BF0C00002070B50026D9
:10224C000C4D0D4C641BA410A64209D100F0A2F851
:10225C0000260A4D0A4C641BA410A64205D170BD81
:10226C0055F8043B98470136EEE755F8043B984780
:10227C000136F2E7D8230008D8230008D823000839
:10228C00DC230008024B0146186800F00BB800BFB5
:10229C000C00002003460244934200D1704703F81F
:1022AC00011BF9E7F8B5CD1C25F0030508350C2DFD
:1022BC0038BF0C25002D064601DBA94203D90C239F
:1022CC0033600020F8BD00F057F821490A68144625
:1022DC009CB9204F3B6823B92146304600F03CF8AE
:1022EC0038602946304600F037F8431C23D10C23C4
:1022FC003046336000F046F8E3E723685B1B17D4E5
:10230C000B2B03D923601C44256004E06368A242B4
:10231C000CBF0B605360304600F034F804F10B0036
:10232C00231D20F00700C21ACCD01B1AA350C9E7FA
:10233C0022466468CCE7C41C24F00304A042E3D01A
:10234C00211A304600F008F80130DDD1CFE700BF8C
:10235C00900000209400002038B50023054D044661
:10236C0008462B60FEF7A4FB431C02D12B6803B17B
:10237C00236038BDFC000020014800F009B800BF04
:10238C0004010020014800F004B800BF0401002043
:10239C0070477047F8B500BFF8BC08BC9E46704744
:0C23AC00F8B500BFF8BC08BC9E467047A6
:1023B80002030405060708090A0B0C0D0E0F10107E
:1023C80000000000000000000102030406070809DD
:0423D80031010008C7
:0423DC000D010008E7
:1023E0000024F40010000000010000001000002094
:1023F00000000000000000000000000000000000DD
:1024000000000000000000000000000000000000CC
:1024100000000000000000000000000000000000BC
:1024200000000000000000000000000000000000AC
:10243000000000000000000000000000000000009C
:10244000000000000000000000000000000000008C
:0400000508000B35AF
:00000001FF
