:020000040800F2
:100000000050002001090008A5080008AB080008FE
:10001000B1080008B7080008BD080008000000008B
:10002000000000000000000000000000C3080008FD
:10003000CF08000800000000DB080008E7080008FF
:100040004909000849090008490900084909000848
:100050004909000849090008490900084909000838
:100060004909000849090008490900084909000828
:100070004909000849090008490900084909000818
:100080004909000849090008490900084909000808
:1000900049090008490900084909000849090008F8
:1000A00049090008490900084909000849090008E8
:1000B00049090008490900084909000849090008D8
:1000C00049090008490900084909000849090008C8
:1000D00049090008490900084909000849090008B8
:1000E0004909000849090008490900080000000002
:1000F0000000000000000000000000000000000000
:0C01000000000000000000005FF808F1A3
:10010C0010B5054C237833B9044B13B10448AFF345
:10011C0000800123237010BD0C00002000000000A3
:10012C008818000808B5034B1BB103490348AFF30B
:10013C00008008BD00000000100000208818000896
:10014C0080B500AF00F0FCFB00F028F800F098F848
:10015C0000F060F800F0EDF80E49262000F094F95C
:10016C000346002BF8D10B4800F082FA0346002B13
:10017C00F2D101224FF40051074800F0CFFE4FF4AA
:10018C007A7000F03FFC00224FF40051024800F05E
:10019C00C5FEE1E7800000200010014080B590B062
:1001AC0000AF07F1180328220021184601F05EFB6E
:1001BC003B1D00221A605A609A60DA601A610223B1
:1001CC00BB610123BB621023FB6200237B6307F13D
:1001DC001803184600F0BAFE0346002B01D000F0BD
:1001EC00A3F80F237B600023BB600023FB6000237C
:1001FC003B6100237B613B1D0021184601F026F971
:10020C000346002B01D000F08FF800BF4037BD46ED
:10021C0080BD000080B500AF174B184A1A60164B12
:10022C004FF482725A60144B00229A60124B0022D7
:10023C00DA60114B00221A610F4B00225A610E4BEF
:10024C004FF400729A610C4B0022DA610A4B0022C7
:10025C001A62094B00225A62074B00229A62064B23
:10026C000A22DA62044801F059FA0346002B01D045
:10027C0000F05AF800BF80BD28000020003001407B
:10028C0080B586B000AF07F1080300221A605A60EF
:10029C009A60DA60214B9B69204A43F0100393610A
:1002AC001E4B9B6903F010037B607B681B4B9B69A7
:1002BC001A4A43F004039361184B9B6903F004033F
:1002CC003B603B6800224FF40051154800F026FEBD
:1002DC0000221021134800F021FE4FF40053BB60A4
:1002EC000123FB6002233B6102237B6107F10803BE
:1002FC0019460B4800F08EFC1023BB600123FB60F9
:10030C0000233B6102237B6107F108031946054872
:10031C0000F080FC00BF1837BD4680BD00100240C5
:10032C00001001400008014080B400AF72B600BF5D
:10033C00FEE780B500AF00F09FF88D212A2000F079
:10034C001CF83E212B2000F018F81E212D2000F067
:10035C0014F800212C2000F010F87021262000F059
:10036C000CF84021152000F008F83D21112000F078
:10037C0004F800F06CF800BF80BD80B582B000AF0F
:10038C0003460A46FB711346BB71FB795B00DBB27B
:10039C0003F07E03FB71BA79FB791146184600F025
:1003AC00C5F900BF0837BD4680BD80B584B000AF2D
:1003BC000346FB71FB795B005BB203F07E035BB21F
:1003CC0063F07F035BB2FB71FB79184600F0CCF94C
:1003DC000346FB73FB7B18461037BD4680BD80B5CA
:1003EC0082B000AF03460A46FB711346BB71FB7922
:1003FC001846FFF7DAFF03461A46BB791343DAB205
:10040C00FB7911461846FFF7B8FF00BF0837BD4609
:10041C0080BD80B582B000AF03460A46FB7113461F
:10042C00BB71FB791846FFF7C0FF03465AB297F928
:10043C000630DB435BB213405BB2DAB2FB79114698
:10044C001846FFF79AFF00BF0837BD4680BD80B540
:10045C0082B000AF1420FFF7A8FF0346FB71FB79B5
:10046C0003F00303002B03D103211420FFF7B7FF84
:10047C0000BF0837BD4680BD80B500AF0F210120FD
:10048C00FFF77BFF00BF80BD80B586B002AF03468F
:10049C003960FB7107210D20FFF76FFF3B68FA797C
:1004AC001A7007F10C0300933B68012239680C2089
:1004BC0000F00FF80346FB73FB7B002B02D1BB89CA
:1004CC00102B01D00223FB73FB7B18461037BD4663
:1004DC0080BD90B587B000AFB9607B600346FB73FD
:1004EC001346BB730223FB750023BB7500237B757E
:1004FC00FB7B0C2B06D00E2B09D11223BB751023C2
:10050C007B7505E07723BB7530237B7500E000BF5E
:10051C00BB7D63F07F03DBB219460220FFF72DFF92
:10052C0080210420FFF775FF80210A20FFF757FF79
:10053C0000210120FFF721FF00237B820AE07B8A48
:10054C00BA6813441B7819460920FFF716FF7B8AFB
:10055C0001337B82BB7B9BB27A8A9A42EFD3FB7BC3
:10056C0019460120FFF709FFFB7B0C2B03D18021DF
:10057C000D20FFF734FF4FF4FA637B820420FFF762
:10058C0014FF03463B757B8A013B7B827B8A002BE5
:10059C000AD03B7D03F00103002B05D13A7D7B7D16
:1005AC001340DBB2002BE9D080210D20FFF731FF87
:1005BC007B8A002B57D00620FFF7F7FE034603F08B
:1005CC001B03002B4DD10023FB753A7DBB7D1340E3
:1005DC00DBB203F00103002B01D00123FB75FB7B85
:1005EC000C2B40D10A20FFF7E0FE03463B750C2094
:1005FC00FFF7DBFE034603F007037B747B7C002BC9
:10060C000BD03B7D013B9BB2DB009AB27B7C9BB257
:10061C0013449AB2BB6A1A8005E03B7D9BB2DB00A7
:10062C009AB2BB6A1A803B7D002B01D101233B752A
:10063C003B7D102B01D910233B7500237B820AE0F4
:10064C007B8A7A68D4180920FFF7AFFE0346237023
:10065C007B8A01337B823B7D9BB27A8A9A42EFD3B1
:10066C0001E00223FB75FB7D18461C37BD4690BD8F
:10067C0080B586B002AF786000237B7300210D201B
:10068C00FFF77BFE7B6893221A707B680133202274
:10069C001A7007F10A0300937B68022279680C2018
:1006AC00FFF717FF0346FB73FB7B002B18D10023CE
:1006BC00BB7309E0BB7B7A6813441A787B7B53408D
:1006CC007B73BB7B0133BB73BB7B032BF2D9BB7B33
:1006DC007A6813441B787A7B9A4201D00223FB730D
:1006EC00FB7B18461037BD4680BD000080B483B03C
:1006FC0000AF0346FB7100BF0B4B9B6803F002037A
:10070C00002BF9D0084AFB79D36000BF064B9B68DD
:10071C0003F00103002BF9D0034BDB68DBB2184666
:10072C000C37BD4680BC70470030014080B582B0AC
:10073C0000AF03460A46FB711346BB71094B4FF4DD
:10074C0080121A61FB791846FFF7D0FFBB79184667
:10075C00FFF7CCFF034B10221A6100BF0837BD46D0
:10076C0080BD00BF0008014080B584B000AF0346D7
:10077C00FB710A4B4FF480121A61FB791846FFF794
:10078C00B5FF0020FFF7B2FF0346FB73034B1022AB
:10079C001A61FB7B18461037BD4680BD000801402E
:1007AC0080B485B000AF154B9B69144A43F001032C
:1007BC009361124B9B6903F00103BB60BB680F4B49
:1007CC00DB690E4A43F08053D3610C4BDB6903F0B9
:1007DC0080537B607B680A4B5B68FB60FB6823F093
:1007EC00E063FB60FB6843F08063FB60044AFB68DA
:1007FC00536000BF1437BD4680BC704700100240E8
:10080C000000014080B588B000AF786007F110039C
:10081C0000221A605A609A60DA607B681B681B4A77
:10082C0093422FD11A4B9B69194A43F4805393611D
:10083C00174B9B6903F48053FB60FB68144B9B695B
:10084C00134A43F004039361114B9B6903F00403B7
:10085C00BB60BB68A0233B6102237B610323FB616C
:10086C0007F1100319460B4800F0D4F940233B6103
:10087C0000237B610023BB6107F110031946054877
:10088C0000F0C8F900BF2037BD4680BD00300140E4
:10089C00001002400008014080B400AFFEE780B4B5
:1008AC0000AFFEE780B400AFFEE780B400AFFEE718
:1008BC0080B400AFFEE780B400AF00BFBD4680BC83
:1008CC00704780B400AF00BFBD4680BC704780B499
:1008DC0000AF00BFBD4680BC704780B500AF00F0D4
:1008EC0075F800BF80BD80B400AF00BFBD4680BCB2
:1008FC00704700000C480D490D4A002302E0D45803
:10090C00C4500433C4188C42F9D30A4A0A4C00234D
:10091C0001E013600432A242FBD3FFF7E4FF00F0C6
:10092C0081FFFFF70DFC7047000000200C00002039
:10093C00C81800080C00002094000020FEE70000FE
:10094C0080B500AF084B1B68074A43F010031360D7
:10095C00032000F02BF90F2000F008F8FFF720FF20
:10096C000023184680BD00BF0020024080B582B035
:10097C0000AF7860124B1A68124B1B7819464FF473
:10098C007A73B3FBF1F3B2FBF3F3184600F035F9CD
:10099C000346002B01D001230EE07B680F2B0AD8F5
:1009AC00002279684FF0FF3000F00BF9064A7B68A3
:1009BC001360002300E0012318460837BD4680BDB4
:1009CC0000000020080000200400002080B400AFCC
:1009DC00054B1B781A46054B1B681344034A1360DE
:1009EC0000BFBD4680BC704708000020900000206E
:1009FC0080B400AF024B1B681846BD4680BC7047E4
:100A0C009000002080B584B000AF7860FFF7F0FF55
:100A1C00B8607B68FB60FB68B3F1FF3F05D00A4B05
:100A2C001B781A46FB681344FB6000BFFFF7E0FF1E
:100A3C000246BB68D31AFA689A42F7D800BF00BFC7
:100A4C001037BD4680BD00BF0800002080B485B0C3
:100A5C0000AF78607B6803F00703FB600C4BDB682E
:100A6C00BB60BA684FF6FF031340BB60FB681A0209
:100A7C00BB68134343F0BF6343F40033BB60044AC9
:100A8C00BB68D36000BF1437BD4680BC704700BF45
:100A9C0000ED00E080B400AF044BDB681B0A03F0F0
:100AAC0007031846BD4680BC704700BF00ED00E050
:100ABC0080B483B000AF03463960FB7197F90730FF
:100ACC00002B0ADB3B68DAB20C4997F907301201AC
:100ADC00D2B20B4483F800230AE03B68DAB208492F
:100AEC00FB7903F00F03043B1201D2B20B441A76CC
:100AFC0000BF0C37BD4680BC704700BF00E100E072
:100B0C0000ED00E080B489B000AFF860B9607A60A5
:100B1C00FB6803F00703FB61FB69C3F10703042BBC
:100B2C0028BF0423BB61FB690433062B02D9FB6984
:100B3C00033B00E000237B614FF0FF32BB6902FAFC
:100B4C0003F3DA43BB681A407B699A404FF0FF31DC
:100B5C007B6901FA03F3D9437B680B4013431846B6
:100B6C002437BD4680BC704780B582B000AF78603A
:100B7C007B68013BB3F1807F01D301230FE00A4A6C
:100B8C007B68013B53600F214FF0FF30FFF790FF64
:100B9C00054B00229A60044B07221A60002318466A
:100BAC000837BD4680BD00BF10E000E080B582B0C4
:100BBC0000AF78607868FFF749FF00BF0837BD4683
:100BCC0080BD80B586B000AF0346B9607A60FB7318
:100BDC0000237B61FFF75EFF78617A68B9687869FA
:100BEC00FFF790FF024697F90F3011461846FFF7B2
:100BFC005FFF00BF1837BD4680BD80B582B000AF27
:100C0C0078607868FFF7B0FF034618460837BD4692
:100C1C0080BD000080B48BB000AF786039600023D9
:100C2C007B6200233B6269E101227B6A02FA03F3D7
:100C3C00FB613B681B68FA691340BB61BA69FB69CD
:100C4C009A4240F058813B685B689A4A93425ED066
:100C5C00984A934275D8984A934258D0964A9342F0
:100C6C006FD8964A934252D0944A934269D8944A88
:100C7C0093424CD0924A934263D8924A934246D0C4
:100C8C00904A93425DD8122B2AD8122B59D801A224
:100C9C0052F823F01B0D0008F50C0008070D000896
:100CAC00490D00084F0D00084F0D00084F0D0008AE
:100CBC004F0D00084F0D00084F0D00084F0D000898
:100CCC004F0D00084F0D00084F0D00084F0D000888
:100CDC004F0D00084F0D0008FD0C0008110D000809
:100CEC00794A934213D02CE03B68DB683B6229E0E5
:100CFC003B68DB6804333B6224E03B68DB68083309
:100D0C003B621FE03B68DB680C333B621AE03B68DC
:100D1C009B68002B02D104233B6213E03B689B6869
:100D2C00012B05D108233B627B68FA691A6109E043
:100D3C0008233B627B68FA695A6103E000233B623B
:100D4C0000E000BFBB69FF2B01D87B6801E07B682A
:100D5C0004337B61BB69FF2B02D87B6A9B0002E0EA
:100D6C007B6A083B9B003B617B691A680F213B69DE
:100D7C0001FA03F3DB431A40396A3B6901FA03F3C6
:100D8C001A437B691A603B685B6803F08053002B45
:100D9C0000F0B1804D4B9B694C4A43F001039361C9
:100DAC004A4B9B6903F00103BB60BB68484A7B6AF2
:100DBC009B08023352F82330FB607B6A03F0030379
:100DCC009B000F2202FA03F3DB43FA681340FB602B
:100DDC007B68404A934213D07B683F4A93420DD0C4
:100DEC007B683E4A934207D07B683D4A934201D1CF
:100DFC00032306E0042304E0022302E0012300E0C5
:100E0C0000237A6A02F0030292009340FA681343BB
:100E1C00FB602F497B6A9B080233FA6841F8232058
:100E2C003B685B6803F48033002B06D02D4B1A68AB
:100E3C002C49BB6913430B6006E02A4B1A68BB694B
:100E4C00DB43284913400B603B685B6803F40033B9
:100E5C00002B06D0234B5A682249BB6913434B60C5
:100E6C0006E0204B5A68BB69DB431E4913404B60BC
:100E7C003B685B6803F48013002B06D0194B9A680F
:100E8C001849BB6913438B6006E0164B9A68BB6923
:100E9C00DB43144913408B603B685B6803F400131D
:100EAC00002B21D00F4BDA680E49BB691343CB6082
:100EBC0021E000BF000032100000311000002210B1
:100ECC000000211000001210000011100010024050
:100EDC000000014000080140000C014000100140DE
:100EEC0000140140000401400B4BDA68BB69DB4382
:100EFC0009491340CB607B6A01337B623B681A68FB
:100F0C007B6A22FA03F3002B7FF48EAE00BF00BF86
:100F1C002C37BD4680BC70470004014080B483B0C0
:100F2C0000AF78600B467B8013467B707B78002B80
:100F3C0003D07A887B681A6103E07B881A047B688B
:100F4C001A6100BF0C37BD4680BC704780B586B0B7
:100F5C0000AF78607B68002B01D101236CE27B68C9
:100F6C001B6803F00103002B00F08780924B5B6839
:100F7C0003F00C03042B0CD08F4B5B6803F00C03B9
:100F8C00082B12D18C4B5B6803F48033B3F5803F94
:100F9C000BD1894B1B6803F40033002B6CD07B689E
:100FAC005B68002B68D1012346E27B685B68B3F574
:100FBC00803F06D1804B1B687F4A43F4803313601B
:100FCC002EE07B685B68002B0CD17B4B1B687A4A4C
:100FDC0023F480331360784B1B68774A23F4802307
:100FEC0013601DE07B685B68B3F5A02F0CD1724BCE
:100FFC001B68714A43F4802313606F4B1B686E4A65
:10100C0043F4803313600BE06B4B1B686A4A23F488
:10101C0080331360684B1B68674A23F4802313608A
:10102C007B685B68002B13D0FFF7E2FC386108E0AB
:10103C00FFF7DEFC02463B69D31A642B01D903236C
:10104C00FAE15D4B1B6803F40033002BF0D014E085
:10105C00FFF7CEFC386108E0FFF7CAFC02463B699B
:10106C00D31A642B01D90323E6E1534B1B6803F419
:10107C000033002BF0D100E000BF7B681B6803F04D
:10108C000203002B63D04C4B5B6803F00C03002B6A
:10109C000BD0494B5B6803F00C03082B1CD1464B5F
:1010AC005B6803F48033002B16D1434B1B6803F0B1
:1010BC000203002B05D07B681B69012B01D0012397
:1010CC00BAE13D4B1B6823F0F8027B685B69DB00DF
:1010DC00394913430B603AE07B681B69002B20D025
:1010EC00364B01221A60FFF783FC386108E0FFF7EA
:1010FC007FFC02463B69D31A022B01D903239BE1E7
:10110C002D4B1B6803F00203002BF0D02A4B1B68FD
:10111C0023F0F8027B685B69DB00274913430B6003
:10112C0015E0264B00221A60FFF762FC386108E0DC
:10113C00FFF75EFC02463B69D31A022B01D903234D
:10114C007AE11D4B1B6803F00203002BF0D17B6886
:10115C001B6803F00803002B3AD07B689B69002BBB
:10116C0019D0174B01221A60FFF742FC386108E0D6
:10117C00FFF73EFC02463B69D31A022B01D903232D
:10118C005AE10D4B5B6A03F00203002BF0D00120F7
:10119C0000F0A6FA1CE00A4B00221A60FFF728FCAC
:1011AC0038610FE0FFF724FC02463B69D31A022B8F
:1011BC0008D9032340E100BF001002400000424266
:1011CC00800442429E4B5B6A03F00203002BE9D180
:1011DC007B681B6803F00403002B00F0A68000233F
:1011EC00FB75974BDB6903F08053002B0DD1944BAF
:1011FC00DB69934A43F08053D361914BDB6903F075
:10120C008053BB60BB680123FB758E4B1B6803F4DA
:10121C008073002B18D18B4B1B688A4A43F4807364
:10122C001360FFF7E5FB386108E0FFF7E1FB0246CE
:10123C003B69D31A642B01D90323FDE0814B1B6856
:10124C0003F48073002BF0D07B68DB68012B06D194
:10125C007B4B1B6A7A4A43F0010313622DE07B68D7
:10126C00DB68002B0CD1764B1B6A754A23F001030B
:10127C001362734B1B6A724A23F0040313621CE063
:10128C007B68DB68052B0CD16D4B1B6A6C4A43F0F9
:10129C00040313626A4B1B6A694A43F0010313622D
:1012AC000BE0674B1B6A664A23F001031362644B25
:1012BC001B6A634A23F0040313627B68DB68002B10
:1012CC0015D0FFF795FB38610AE0FFF791FB02465A
:1012DC003B69D31A41F28832934201D90323ABE024
:1012EC00574B1B6A03F00203002BEED014E0FFF700
:1012FC007FFB38610AE0FFF77BFB02463B69D31AA0
:10130C0041F28832934201D9032395E04C4B1B6A7E
:10131C0003F00203002BEED1FB7D012B05D1484BD2
:10132C00DB69474A23F08053D3617B68DB69002B70
:10133C0000F08180424B5B6803F00C03082B61D0FA
:10134C007B68DB69022B46D13F4B00221A60FFF70A
:10135C004FFB386108E0FFF74BFB02463B69D31AA1
:10136C00022B01D9032367E0354B1B6803F0007394
:10137C00002BF0D17B681B6AB3F5803F08D1304B52
:10138C005B6823F400327B689B682D4913434B60E8
:10139C002B4B5B6823F474127B68196A7B685B6A5D
:1013AC000B43274913434B60274B01221A60FFF76D
:1013BC001FFB386108E0FFF71BFB02463B69D31AA1
:1013CC00022B01D9032337E01D4B1B6803F000737C
:1013DC00002BF0D02FE01C4B00221A60FFF708FB0B
:1013EC00386108E0FFF704FB02463B69D31A022B75
:1013FC0001D9032320E0124B1B6803F00073002B70
:10140C00F0D118E07B68DB69012B01D1012313E0DB
:10141C000B4B5B68FB60FB6803F480327B681B6AD8
:10142C009A4206D1FB6803F470127B685B6A9A429D
:10143C0001D0012300E0002318461837BD4680BDBB
:10144C0000100240007000406000424280B584B041
:10145C0000AF786039607B68002B01D10123D0E0AC
:10146C006A4B1B6803F007033A689A4210D9674B22
:10147C001B6823F0070265493B6813430B60634B01
:10148C001B6803F007033A689A4201D00123B8E0C5
:10149C007B681B6803F00203002B20D07B681B6861
:1014AC0003F00403002B05D0594B5B68584A43F4F6
:1014BC00E06353607B681B6803F00803002B05D0C6
:1014CC00534B5B68524A43F460535360504B5B6818
:1014DC0023F0F0027B689B684D4913434B607B689B
:1014EC001B6803F00103002B40D07B685B68012B69
:1014FC0007D1474B1B6803F40033002B15D1012394
:10150C007FE07B685B68022B07D1414B1B6803F0C3
:10151C000073002B09D1012373E03D4B1B6803F0D2
:10152C000203002B01D101236BE0394B5B6823F0E4
:10153C0003027B685B68364913434B60FFF758FA2C
:10154C00F8600AE0FFF754FA0246FB68D31A41F23E
:10155C008832934201D9032353E02D4B5B6803F08F
:10156C000C027B685B689B009A42EBD1274B1B6893
:10157C0003F007033A689A4210D2244B1B6823F0FD
:10158C00070222493B6813430B60204B1B6803F096
:10159C0007033A689A4201D0012332E07B681B684A
:1015AC0003F00403002B08D0194B5B6823F4E062B2
:1015BC007B68DB68164913434B607B681B6803F040
:1015CC000803002B09D0124B5B6823F460527B6834
:1015DC001B69DB000E4913434B6000F021F80246F7
:1015EC000B4B5B681B0903F00F030A49CB5C22FA17
:1015FC0003F3094A1360094B1B681846FFF7B6F949
:10160C00002318461037BD4680BD00BF00200240A5
:10161C0000100240B0180008000000200400002058
:10162C0090B48AB000AF2A4B3C1D0FCB84E80F005E
:10163C0040F201233B800023FB610023BB610023AC
:10164C007B6200237B6100233B62224B5B68FB6166
:10165C00FB6903F00C03042B02D0082B03D02DE004
:10166C001D4B3B622DE0FB699B0C03F00F0307F154
:10167C002802134413F8243C7B61FB6903F4803388
:10168C00002B13D0134B5B685B0C03F0010307F1C9
:10169C002802134413F8283CBB617B690E4A02FBF9
:1016AC0003F2BB69B2FBF3F37B6204E07B690B4A88
:1016BC0002FB03F37B627B6A3B6202E0064B3B62FC
:1016CC0000BF3B6A18462837BD4690BC704700BF28
:1016DC00A01800080010024000127A0000093D001A
:1016EC0080B485B000AF78600A4B1B680A4AA2FB35
:1016FC0003235B0A7A6802FB03F3FB6000BFFB6801
:10170C005A1EFA60002BF9D100BF00BF1437BD463A
:10171C0080BC704700000020D34D621080B582B0B1
:10172C0000AF78607B68002B01D1012376E07B68E9
:10173C005B6A002B08D17B685B68B3F5827F09D0AC
:10174C007B680022DA6105E07B6800221A617B6805
:10175C0000225A617B6800229A627B6893F85130B0
:10176C00DBB2002B06D17B68002283F8502078680E
:10177C00FFF748F87B68022283F851207B681B68CE
:10178C001A687B681B6822F040021A607B685B68F1
:10179C0003F482727B689B6803F404431A437B68EE
:1017AC00DB6803F400631A437B681B6903F00203D4
:1017BC001A437B685B6903F001031A437B689B69DE
:1017CC0003F400731A437B68DB6903F038031A4394
:1017DC007B681B6A03F0800342EA03017B689B6A07
:1017EC0003F400527B681B680A431A607B689B6990
:1017FC001A0C7B681B6802F004025A607B681B6839
:10180C00DA697B681B6822F40062DA617B6800226B
:10181C005A657B68012283F851200023184608374B
:10182C00BD4680BD70B500260C4D0D4C641BA4103C
:10183C00A64209D100F022F800260A4D0A4C641B7E
:10184C00A410A64205D170BD55F8043B984701364B
:10185C00EEE755F8043B98470136F2E7C01800084C
:10186C00C0180008C0180008C41800080346024439
:10187C00934200D1704703F8011BF9E7F8B500BF9C
:10188C00F8BC08BC9E467047F8B500BFF8BC08BC55
:04189C009E467047AD
:1018A00002030405060708090A0B0C0D0E0F1010A1
:1018B0000000000000000000010203040607080900
:0418C00031010008EA
:0418C4000D0100080A
:0C18C8000024F4001000000001000000EB
:0400000508000901E5
:00000001FF
